{
  "_format": "hh-sol-artifact-1",
  "contractName": "DDNS",
  "sourceName": "contracts/ddns.sol",
  "abi": [
    {
      "anonymous": false,
      "inputs": [
        {
          "indexed": false,
          "internalType": "string",
          "name": "domain",
          "type": "string"
        },
        {
          "indexed": false,
          "internalType": "string",
          "name": "newCid",
          "type": "string"
        }
      ],
      "name": "CIDUpdated",
      "type": "event"
    },
    {
      "anonymous": false,
      "inputs": [
        {
          "indexed": false,
          "internalType": "string",
          "name": "domain",
          "type": "string"
        },
        {
          "indexed": false,
          "internalType": "address",
          "name": "owner",
          "type": "address"
        },
        {
          "indexed": false,
          "internalType": "string",
          "name": "cid",
          "type": "string"
        }
      ],
      "name": "DomainRegistered",
      "type": "event"
    },
    {
      "anonymous": false,
      "inputs": [
        {
          "indexed": false,
          "internalType": "string",
          "name": "domain",
          "type": "string"
        },
        {
          "indexed": false,
          "internalType": "address",
          "name": "oldOwner",
          "type": "address"
        },
        {
          "indexed": false,
          "internalType": "address",
          "name": "newOwner",
          "type": "address"
        }
      ],
      "name": "OwnershipTransferred",
      "type": "event"
    },
    {
      "inputs": [
        {
          "internalType": "string",
          "name": "domain",
          "type": "string"
        }
      ],
      "name": "isAvailable",
      "outputs": [
        {
          "internalType": "bool",
          "name": "",
          "type": "bool"
        }
      ],
      "stateMutability": "view",
      "type": "function"
    },
    {
      "inputs": [
        {
          "internalType": "string",
          "name": "domain",
          "type": "string"
        },
        {
          "internalType": "string",
          "name": "cid",
          "type": "string"
        }
      ],
      "name": "registerDomain",
      "outputs": [],
      "stateMutability": "nonpayable",
      "type": "function"
    },
    {
      "inputs": [
        {
          "internalType": "string",
          "name": "domain",
          "type": "string"
        }
      ],
      "name": "resolve",
      "outputs": [
        {
          "internalType": "string",
          "name": "",
          "type": "string"
        }
      ],
      "stateMutability": "view",
      "type": "function"
    },
    {
      "inputs": [
        {
          "internalType": "string",
          "name": "domain",
          "type": "string"
        },
        {
          "internalType": "address",
          "name": "newOwner",
          "type": "address"
        }
      ],
      "name": "transferDomain",
      "outputs": [],
      "stateMutability": "nonpayable",
      "type": "function"
    },
    {
      "inputs": [
        {
          "internalType": "string",
          "name": "domain",
          "type": "string"
        },
        {
          "internalType": "string",
          "name": "newCid",
          "type": "string"
        }
      ],
      "name": "updateCID",
      "outputs": [],
      "stateMutability": "nonpayable",
      "type": "function"
    }
  ],
  "bytecode": "0x608060405234801561001057600080fd5b50610fc6806100206000396000f3fe608060405234801561001057600080fd5b50600436106100575760003560e01c806319fbe87e1461005c578063461a4478146100785780634a878e5f146100a857806387a3d555146100c4578063965306aa146100e0575b600080fd5b61007660048036038101906100719190610854565b610110565b005b610092600480360381019061008d91906108b0565b6102a6565b60405161009f9190610978565b60405180910390f35b6100c260048036038101906100bd919061099a565b6103c7565b005b6100de60048036038101906100d9919061099a565b6104e4565b005b6100fa60048036038101906100f591906108b0565b610664565b6040516101079190610a2d565b60405180910390f35b813373ffffffffffffffffffffffffffffffffffffffff166000826040516101389190610a84565b908152602001604051809103902060000160009054906101000a900473ffffffffffffffffffffffffffffffffffffffff1673ffffffffffffffffffffffffffffffffffffffff16146101c0576040517f08c379a00000000000000000000000000000000000000000000000000000000081526004016101b790610ae7565b60405180910390fd5b600080846040516101d19190610a84565b908152602001604051809103902060000160009054906101000a900473ffffffffffffffffffffffffffffffffffffffff169050826000856040516102169190610a84565b908152602001604051809103902060000160006101000a81548173ffffffffffffffffffffffffffffffffffffffff021916908373ffffffffffffffffffffffffffffffffffffffff1602179055507f6840904f5b31827f74e1497360da245f56e530c8c3de3163a2d31f11493273c684828560405161029893929190610b16565b60405180910390a150505050565b60606000826040516102b89190610a84565b908152602001604051809103902060020160009054906101000a900460ff16610316576040517f08c379a000000000000000000000000000000000000000000000000000000000815260040161030d90610ba0565b60405180910390fd5b6000826040516103269190610a84565b9081526020016040518091039020600101805461034290610bef565b80601f016020809104026020016040519081016040528092919081815260200182805461036e90610bef565b80156103bb5780601f10610390576101008083540402835291602001916103bb565b820191906000526020600020905b81548152906001019060200180831161039e57829003601f168201915b50505050509050919050565b813373ffffffffffffffffffffffffffffffffffffffff166000826040516103ef9190610a84565b908152602001604051809103902060000160009054906101000a900473ffffffffffffffffffffffffffffffffffffffff1673ffffffffffffffffffffffffffffffffffffffff1614610477576040517f08c379a000000000000000000000000000000000000000000000000000000000815260040161046e90610ae7565b60405180910390fd5b816000846040516104889190610a84565b908152602001604051809103902060010190816104a59190610dd6565b507f4a20a0fad027494465c4637a04529d750e4a581d439c8d2acbefdac22f62036883836040516104d7929190610ea8565b60405180910390a1505050565b6000826040516104f49190610a84565b908152602001604051809103902060020160009054906101000a900460ff1615610553576040517f08c379a000000000000000000000000000000000000000000000000000000000815260040161054a90610f2b565b60405180910390fd5b60405180606001604052803373ffffffffffffffffffffffffffffffffffffffff168152602001828152602001600115158152506000836040516105979190610a84565b908152602001604051809103902060008201518160000160006101000a81548173ffffffffffffffffffffffffffffffffffffffff021916908373ffffffffffffffffffffffffffffffffffffffff16021790555060208201518160010190816106019190610dd6565b5060408201518160020160006101000a81548160ff0219169083151502179055509050507f0dad0789e5f00393faf50d323c2013426a76f5c3a9c84df042d6535bd7d361d782338360405161065893929190610f4b565b60405180910390a15050565b600080826040516106759190610a84565b908152602001604051809103902060020160009054906101000a900460ff16159050919050565b6000604051905090565b600080fd5b600080fd5b600080fd5b600080fd5b6000601f19601f8301169050919050565b7f4e487b7100000000000000000000000000000000000000000000000000000000600052604160045260246000fd5b610703826106ba565b810181811067ffffffffffffffff82111715610722576107216106cb565b5b80604052505050565b600061073561069c565b905061074182826106fa565b919050565b600067ffffffffffffffff821115610761576107606106cb565b5b61076a826106ba565b9050602081019050919050565b82818337600083830152505050565b600061079961079484610746565b61072b565b9050828152602081018484840111156107b5576107b46106b5565b5b6107c0848285610777565b509392505050565b600082601f8301126107dd576107dc6106b0565b5b81356107ed848260208601610786565b91505092915050565b600073ffffffffffffffffffffffffffffffffffffffff82169050919050565b6000610821826107f6565b9050919050565b61083181610816565b811461083c57600080fd5b50565b60008135905061084e81610828565b92915050565b6000806040838503121561086b5761086a6106a6565b5b600083013567ffffffffffffffff811115610889576108886106ab565b5b610895858286016107c8565b92505060206108a68582860161083f565b9150509250929050565b6000602082840312156108c6576108c56106a6565b5b600082013567ffffffffffffffff8111156108e4576108e36106ab565b5b6108f0848285016107c8565b91505092915050565b600081519050919050565b600082825260208201905092915050565b60005b83811015610933578082015181840152602081019050610918565b60008484015250505050565b600061094a826108f9565b6109548185610904565b9350610964818560208601610915565b61096d816106ba565b840191505092915050565b60006020820190508181036000830152610992818461093f565b905092915050565b600080604083850312156109b1576109b06106a6565b5b600083013567ffffffffffffffff8111156109cf576109ce6106ab565b5b6109db858286016107c8565b925050602083013567ffffffffffffffff8111156109fc576109fb6106ab565b5b610a08858286016107c8565b9150509250929050565b60008115159050919050565b610a2781610a12565b82525050565b6000602082019050610a426000830184610a1e565b92915050565b600081905092915050565b6000610a5e826108f9565b610a688185610a48565b9350610a78818560208601610915565b80840191505092915050565b6000610a908284610a53565b915081905092915050565b7f4e6f74206f776e65720000000000000000000000000000000000000000000000600082015250565b6000610ad1600983610904565b9150610adc82610a9b565b602082019050919050565b60006020820190508181036000830152610b0081610ac4565b9050919050565b610b1081610816565b82525050565b60006060820190508181036000830152610b30818661093f565b9050610b3f6020830185610b07565b610b4c6040830184610b07565b949350505050565b7f446f6d61696e206e6f7420666f756e6400000000000000000000000000000000600082015250565b6000610b8a601083610904565b9150610b9582610b54565b602082019050919050565b60006020820190508181036000830152610bb981610b7d565b9050919050565b7f4e487b7100000000000000000000000000000000000000000000000000000000600052602260045260246000fd5b60006002820490506001821680610c0757607f821691505b602082108103610c1a57610c19610bc0565b5b50919050565b60008190508160005260206000209050919050565b60006020601f8301049050919050565b600082821b905092915050565b600060088302610c827fffffffffffffffffffffffffffffffffffffffffffffffffffffffffffffffff82610c45565b610c8c8683610c45565b95508019841693508086168417925050509392505050565b6000819050919050565b6000819050919050565b6000610cd3610cce610cc984610ca4565b610cae565b610ca4565b9050919050565b6000819050919050565b610ced83610cb8565b610d01610cf982610cda565b848454610c52565b825550505050565b600090565b610d16610d09565b610d21818484610ce4565b505050565b5b81811015610d4557610d3a600082610d0e565b600181019050610d27565b5050565b601f821115610d8a57610d5b81610c20565b610d6484610c35565b81016020851015610d73578190505b610d87610d7f85610c35565b830182610d26565b50505b505050565b600082821c905092915050565b6000610dad60001984600802610d8f565b1980831691505092915050565b6000610dc68383610d9c565b9150826002028217905092915050565b610ddf826108f9565b67ffffffffffffffff811115610df857610df76106cb565b5b610e028254610bef565b610e0d828285610d49565b600060209050601f831160018114610e405760008415610e2e578287015190505b610e388582610dba565b865550610ea0565b601f198416610e4e86610c20565b60005b82811015610e7657848901518255600182019150602085019450602081019050610e51565b86831015610e935784890151610e8f601f891682610d9c565b8355505b6001600288020188555050505b505050505050565b60006040820190508181036000830152610ec2818561093f565b90508181036020830152610ed6818461093f565b90509392505050565b7f416c726561647920726567697374657265640000000000000000000000000000600082015250565b6000610f15601283610904565b9150610f2082610edf565b602082019050919050565b60006020820190508181036000830152610f4481610f08565b9050919050565b60006060820190508181036000830152610f65818661093f565b9050610f746020830185610b07565b8181036040830152610f86818461093f565b905094935050505056fea2646970667358221220aac13ee5163089279dea60287f1de51913b959a78fee54b384a07587b634aba864736f6c63430008140033",
  "linkReferences": {},
  "deployedLinkReferences": {}
}